{
  "_format": "hh-sol-artifact-1",
  "contractName": "RewardToken",
  "sourceName": "contracts/RewardToken.sol",
  "abi": [
    {
      "inputs": [],
      "stateMutability": "nonpayable",
      "type": "constructor"
    },
    {
      "anonymous": false,
      "inputs": [
        {
          "indexed": true,
          "internalType": "address",
          "name": "owner",
          "type": "address"
        },
        {
          "indexed": true,
          "internalType": "address",
          "name": "spender",
          "type": "address"
        },
        {
          "indexed": false,
          "internalType": "uint256",
          "name": "value",
          "type": "uint256"
        }
      ],
      "name": "Approval",
      "type": "event"
    },
    {
      "anonymous": false,
      "inputs": [
        {
          "indexed": true,
          "internalType": "address",
          "name": "previousOwner",
          "type": "address"
        },
        {
          "indexed": true,
          "internalType": "address",
          "name": "newOwner",
          "type": "address"
        }
      ],
      "name": "OwnershipTransferred",
      "type": "event"
    },
    {
      "anonymous": false,
      "inputs": [
        {
          "indexed": true,
          "internalType": "address",
          "name": "from",
          "type": "address"
        },
        {
          "indexed": true,
          "internalType": "address",
          "name": "to",
          "type": "address"
        },
        {
          "indexed": false,
          "internalType": "uint256",
          "name": "value",
          "type": "uint256"
        }
      ],
      "name": "Transfer",
      "type": "event"
    },
    {
      "stateMutability": "payable",
      "type": "fallback"
    },
    {
      "inputs": [
        {
          "internalType": "address",
          "name": "owner",
          "type": "address"
        },
        {
          "internalType": "address",
          "name": "spender",
          "type": "address"
        }
      ],
      "name": "allowance",
      "outputs": [
        {
          "internalType": "uint256",
          "name": "",
          "type": "uint256"
        }
      ],
      "stateMutability": "view",
      "type": "function"
    },
    {
      "inputs": [
        {
          "internalType": "address",
          "name": "spender",
          "type": "address"
        },
        {
          "internalType": "uint256",
          "name": "amount",
          "type": "uint256"
        }
      ],
      "name": "approve",
      "outputs": [
        {
          "internalType": "bool",
          "name": "",
          "type": "bool"
        }
      ],
      "stateMutability": "nonpayable",
      "type": "function"
    },
    {
      "inputs": [
        {
          "internalType": "address",
          "name": "account",
          "type": "address"
        }
      ],
      "name": "balanceOf",
      "outputs": [
        {
          "internalType": "uint256",
          "name": "",
          "type": "uint256"
        }
      ],
      "stateMutability": "view",
      "type": "function"
    },
    {
      "inputs": [],
      "name": "buyToken",
      "outputs": [],
      "stateMutability": "payable",
      "type": "function"
    },
    {
      "inputs": [],
      "name": "decimals",
      "outputs": [
        {
          "internalType": "uint8",
          "name": "",
          "type": "uint8"
        }
      ],
      "stateMutability": "view",
      "type": "function"
    },
    {
      "inputs": [
        {
          "internalType": "address",
          "name": "spender",
          "type": "address"
        },
        {
          "internalType": "uint256",
          "name": "subtractedValue",
          "type": "uint256"
        }
      ],
      "name": "decreaseAllowance",
      "outputs": [
        {
          "internalType": "bool",
          "name": "",
          "type": "bool"
        }
      ],
      "stateMutability": "nonpayable",
      "type": "function"
    },
    {
      "inputs": [
        {
          "internalType": "address",
          "name": "spender",
          "type": "address"
        },
        {
          "internalType": "uint256",
          "name": "addedValue",
          "type": "uint256"
        }
      ],
      "name": "increaseAllowance",
      "outputs": [
        {
          "internalType": "bool",
          "name": "",
          "type": "bool"
        }
      ],
      "stateMutability": "nonpayable",
      "type": "function"
    },
    {
      "inputs": [],
      "name": "name",
      "outputs": [
        {
          "internalType": "string",
          "name": "",
          "type": "string"
        }
      ],
      "stateMutability": "view",
      "type": "function"
    },
    {
      "inputs": [],
      "name": "owner",
      "outputs": [
        {
          "internalType": "address",
          "name": "",
          "type": "address"
        }
      ],
      "stateMutability": "view",
      "type": "function"
    },
    {
      "inputs": [],
      "name": "renounceOwnership",
      "outputs": [],
      "stateMutability": "nonpayable",
      "type": "function"
    },
    {
      "inputs": [],
      "name": "symbol",
      "outputs": [
        {
          "internalType": "string",
          "name": "",
          "type": "string"
        }
      ],
      "stateMutability": "view",
      "type": "function"
    },
    {
      "inputs": [],
      "name": "totalSupply",
      "outputs": [
        {
          "internalType": "uint256",
          "name": "",
          "type": "uint256"
        }
      ],
      "stateMutability": "view",
      "type": "function"
    },
    {
      "inputs": [
        {
          "internalType": "address",
          "name": "to",
          "type": "address"
        },
        {
          "internalType": "uint256",
          "name": "amount",
          "type": "uint256"
        }
      ],
      "name": "transfer",
      "outputs": [
        {
          "internalType": "bool",
          "name": "",
          "type": "bool"
        }
      ],
      "stateMutability": "nonpayable",
      "type": "function"
    },
    {
      "inputs": [
        {
          "internalType": "address",
          "name": "from",
          "type": "address"
        },
        {
          "internalType": "address",
          "name": "to",
          "type": "address"
        },
        {
          "internalType": "uint256",
          "name": "amount",
          "type": "uint256"
        }
      ],
      "name": "transferFrom",
      "outputs": [
        {
          "internalType": "bool",
          "name": "",
          "type": "bool"
        }
      ],
      "stateMutability": "nonpayable",
      "type": "function"
    },
    {
      "inputs": [
        {
          "internalType": "address",
          "name": "newOwner",
          "type": "address"
        }
      ],
      "name": "transferOwnership",
      "outputs": [],
      "stateMutability": "nonpayable",
      "type": "function"
    },
    {
      "inputs": [],
      "name": "withdraw",
      "outputs": [],
      "stateMutability": "nonpayable",
      "type": "function"
    },
    {
      "stateMutability": "payable",
      "type": "receive"
    }
  ],
  "bytecode": "0x60806040523480156200001157600080fd5b506040518060400160405280600381526020017f536d7300000000000000000000000000000000000000000000000000000000008152506040518060400160405280600381526020017f736d7300000000000000000000000000000000000000000000000000000000008152508160039080519060200190620000969291906200033d565b508060049080519060200190620000af9291906200033d565b505050620000d2620000c6620000f760201b60201c565b620000ff60201b60201c565b620000f1336c7e37be2022c0914b2680000000620001c560201b60201c565b62000599565b600033905090565b6000600560009054906101000a900473ffffffffffffffffffffffffffffffffffffffff16905081600560006101000a81548173ffffffffffffffffffffffffffffffffffffffff021916908373ffffffffffffffffffffffffffffffffffffffff1602179055508173ffffffffffffffffffffffffffffffffffffffff168173ffffffffffffffffffffffffffffffffffffffff167f8be0079c531659141344cd1fd0a4f28419497f9722a3daafe3b4186f6b6457e060405160405180910390a35050565b600073ffffffffffffffffffffffffffffffffffffffff168273ffffffffffffffffffffffffffffffffffffffff16141562000238576040517f08c379a00000000000000000000000000000000000000000000000000000000081526004016200022f9062000425565b60405180910390fd5b6200024c600083836200033360201b60201c565b806002600082825462000260919062000475565b92505081905550806000808473ffffffffffffffffffffffffffffffffffffffff1673ffffffffffffffffffffffffffffffffffffffff168152602001908152602001600020600082825401925050819055508173ffffffffffffffffffffffffffffffffffffffff16600073ffffffffffffffffffffffffffffffffffffffff167fddf252ad1be2c89b69c2b068fc378daa952ba7f163c4a11628f55a4df523b3ef8360405162000313919062000447565b60405180910390a36200032f600083836200033860201b60201c565b5050565b505050565b505050565b8280546200034b90620004dc565b90600052602060002090601f0160209004810192826200036f5760008555620003bb565b82601f106200038a57805160ff1916838001178555620003bb565b82800160010185558215620003bb579182015b82811115620003ba5782518255916020019190600101906200039d565b5b509050620003ca9190620003ce565b5090565b5b80821115620003e9576000816000905550600101620003cf565b5090565b6000620003fc601f8362000464565b9150620004098262000570565b602082019050919050565b6200041f81620004d2565b82525050565b600060208201905081810360008301526200044081620003ed565b9050919050565b60006020820190506200045e600083018462000414565b92915050565b600082825260208201905092915050565b60006200048282620004d2565b91506200048f83620004d2565b9250827fffffffffffffffffffffffffffffffffffffffffffffffffffffffffffffffff03821115620004c757620004c662000512565b5b828201905092915050565b6000819050919050565b60006002820490506001821680620004f557607f821691505b602082108114156200050c576200050b62000541565b5b50919050565b7f4e487b7100000000000000000000000000000000000000000000000000000000600052601160045260246000fd5b7f4e487b7100000000000000000000000000000000000000000000000000000000600052602260045260246000fd5b7f45524332303a206d696e7420746f20746865207a65726f206164647265737300600082015250565b611b5080620005a96000396000f3fe6080604052600436106100f75760003560e01c8063715018a61161008a578063a482171911610059578063a482171914610336578063a9059cbb14610340578063dd62ed3e1461037d578063f2fde38b146103ba576100fe565b8063715018a61461028c5780638da5cb5b146102a357806395d89b41146102ce578063a457c2d7146102f9576100fe565b8063313ce567116100c6578063313ce567146101d057806339509351146101fb5780633ccfd60b1461023857806370a082311461024f576100fe565b806306fdde0314610100578063095ea7b31461012b57806318160ddd1461016857806323b872dd14610193576100fe565b366100fe57005b005b34801561010c57600080fd5b506101156103e3565b6040516101229190611416565b60405180910390f35b34801561013757600080fd5b50610152600480360381019061014d919061114f565b610475565b60405161015f91906113fb565b60405180910390f35b34801561017457600080fd5b5061017d610498565b60405161018a91906115b8565b60405180910390f35b34801561019f57600080fd5b506101ba60048036038101906101b591906110fc565b6104a2565b6040516101c791906113fb565b60405180910390f35b3480156101dc57600080fd5b506101e56104d1565b6040516101f291906115d3565b60405180910390f35b34801561020757600080fd5b50610222600480360381019061021d919061114f565b6104da565b60405161022f91906113fb565b60405180910390f35b34801561024457600080fd5b5061024d610511565b005b34801561025b57600080fd5b506102766004803603810190610271919061108f565b6105cf565b60405161028391906115b8565b60405180910390f35b34801561029857600080fd5b506102a1610617565b005b3480156102af57600080fd5b506102b861062b565b6040516102c591906113e0565b60405180910390f35b3480156102da57600080fd5b506102e3610655565b6040516102f09190611416565b60405180910390f35b34801561030557600080fd5b50610320600480360381019061031b919061114f565b6106e7565b60405161032d91906113fb565b60405180910390f35b61033e61075e565b005b34801561034c57600080fd5b506103676004803603810190610362919061114f565b6107bb565b60405161037491906113fb565b60405180910390f35b34801561038957600080fd5b506103a4600480360381019061039f91906110bc565b6107de565b6040516103b191906115b8565b60405180910390f35b3480156103c657600080fd5b506103e160048036038101906103dc919061108f565b610865565b005b6060600380546103f29061174d565b80601f016020809104026020016040519081016040528092919081815260200182805461041e9061174d565b801561046b5780601f106104405761010080835404028352916020019161046b565b820191906000526020600020905b81548152906001019060200180831161044e57829003601f168201915b5050505050905090565b6000806104806108e9565b905061048d8185856108f1565b600191505092915050565b6000600254905090565b6000806104ad6108e9565b90506104ba858285610abc565b6104c5858585610b48565b60019150509392505050565b60006012905090565b6000806104e56108e9565b90506105068185856104f785896107de565b6105019190611615565b6108f1565b600191505092915050565b610519610dc0565b600061052361062b565b73ffffffffffffffffffffffffffffffffffffffff1647604051610546906113cb565b60006040518083038185875af1925050503d8060008114610583576040519150601f19603f3d011682016040523d82523d6000602084013e610588565b606091505b50509050806105cc576040517f08c379a00000000000000000000000000000000000000000000000000000000081526004016105c3906114d8565b60405180910390fd5b50565b60008060008373ffffffffffffffffffffffffffffffffffffffff1673ffffffffffffffffffffffffffffffffffffffff168152602001908152602001600020549050919050565b61061f610dc0565b6106296000610e3e565b565b6000600560009054906101000a900473ffffffffffffffffffffffffffffffffffffffff16905090565b6060600480546106649061174d565b80601f01602080910402602001604051908101604052809291908181526020018280546106909061174d565b80156106dd5780601f106106b2576101008083540402835291602001916106dd565b820191906000526020600020905b8154815290600101906020018083116106c057829003601f168201915b5050505050905090565b6000806106f26108e9565b9050600061070082866107de565b905083811015610745576040517f08c379a000000000000000000000000000000000000000000000000000000000815260040161073c90611578565b60405180910390fd5b61075282868684036108f1565b60019250505092915050565b600034116107a1576040517f08c379a0000000000000000000000000000000000000000000000000000000008152600401610798906114f8565b60405180910390fd5b6107b933620f4240346107b4919061166b565b610f04565b565b6000806107c66108e9565b90506107d3818585610b48565b600191505092915050565b6000600160008473ffffffffffffffffffffffffffffffffffffffff1673ffffffffffffffffffffffffffffffffffffffff16815260200190815260200160002060008373ffffffffffffffffffffffffffffffffffffffff1673ffffffffffffffffffffffffffffffffffffffff16815260200190815260200160002054905092915050565b61086d610dc0565b600073ffffffffffffffffffffffffffffffffffffffff168173ffffffffffffffffffffffffffffffffffffffff1614156108dd576040517f08c379a00000000000000000000000000000000000000000000000000000000081526004016108d490611458565b60405180910390fd5b6108e681610e3e565b50565b600033905090565b600073ffffffffffffffffffffffffffffffffffffffff168373ffffffffffffffffffffffffffffffffffffffff161415610961576040517f08c379a000000000000000000000000000000000000000000000000000000000815260040161095890611558565b60405180910390fd5b600073ffffffffffffffffffffffffffffffffffffffff168273ffffffffffffffffffffffffffffffffffffffff1614156109d1576040517f08c379a00000000000000000000000000000000000000000000000000000000081526004016109c890611478565b60405180910390fd5b80600160008573ffffffffffffffffffffffffffffffffffffffff1673ffffffffffffffffffffffffffffffffffffffff16815260200190815260200160002060008473ffffffffffffffffffffffffffffffffffffffff1673ffffffffffffffffffffffffffffffffffffffff168152602001908152602001600020819055508173ffffffffffffffffffffffffffffffffffffffff168373ffffffffffffffffffffffffffffffffffffffff167f8c5be1e5ebec7d5bd14f71427d1e84f3dd0314c0f7b2291e5b200ac8c7c3b92583604051610aaf91906115b8565b60405180910390a3505050565b6000610ac884846107de565b90507fffffffffffffffffffffffffffffffffffffffffffffffffffffffffffffffff8114610b425781811015610b34576040517f08c379a0000000000000000000000000000000000000000000000000000000008152600401610b2b90611498565b60405180910390fd5b610b4184848484036108f1565b5b50505050565b600073ffffffffffffffffffffffffffffffffffffffff168373ffffffffffffffffffffffffffffffffffffffff161415610bb8576040517f08c379a0000000000000000000000000000000000000000000000000000000008152600401610baf90611538565b60405180910390fd5b600073ffffffffffffffffffffffffffffffffffffffff168273ffffffffffffffffffffffffffffffffffffffff161415610c28576040517f08c379a0000000000000000000000000000000000000000000000000000000008152600401610c1f90611438565b60405180910390fd5b610c3383838361105b565b60008060008573ffffffffffffffffffffffffffffffffffffffff1673ffffffffffffffffffffffffffffffffffffffff16815260200190815260200160002054905081811015610cb9576040517f08c379a0000000000000000000000000000000000000000000000000000000008152600401610cb0906114b8565b60405180910390fd5b8181036000808673ffffffffffffffffffffffffffffffffffffffff1673ffffffffffffffffffffffffffffffffffffffff16815260200190815260200160002081905550816000808573ffffffffffffffffffffffffffffffffffffffff1673ffffffffffffffffffffffffffffffffffffffff168152602001908152602001600020600082825401925050819055508273ffffffffffffffffffffffffffffffffffffffff168473ffffffffffffffffffffffffffffffffffffffff167fddf252ad1be2c89b69c2b068fc378daa952ba7f163c4a11628f55a4df523b3ef84604051610da791906115b8565b60405180910390a3610dba848484611060565b50505050565b610dc86108e9565b73ffffffffffffffffffffffffffffffffffffffff16610de661062b565b73ffffffffffffffffffffffffffffffffffffffff1614610e3c576040517f08c379a0000000000000000000000000000000000000000000000000000000008152600401610e3390611518565b60405180910390fd5b565b6000600560009054906101000a900473ffffffffffffffffffffffffffffffffffffffff16905081600560006101000a81548173ffffffffffffffffffffffffffffffffffffffff021916908373ffffffffffffffffffffffffffffffffffffffff1602179055508173ffffffffffffffffffffffffffffffffffffffff168173ffffffffffffffffffffffffffffffffffffffff167f8be0079c531659141344cd1fd0a4f28419497f9722a3daafe3b4186f6b6457e060405160405180910390a35050565b600073ffffffffffffffffffffffffffffffffffffffff168273ffffffffffffffffffffffffffffffffffffffff161415610f74576040517f08c379a0000000000000000000000000000000000000000000000000000000008152600401610f6b90611598565b60405180910390fd5b610f806000838361105b565b8060026000828254610f929190611615565b92505081905550806000808473ffffffffffffffffffffffffffffffffffffffff1673ffffffffffffffffffffffffffffffffffffffff168152602001908152602001600020600082825401925050819055508173ffffffffffffffffffffffffffffffffffffffff16600073ffffffffffffffffffffffffffffffffffffffff167fddf252ad1be2c89b69c2b068fc378daa952ba7f163c4a11628f55a4df523b3ef8360405161104391906115b8565b60405180910390a361105760008383611060565b5050565b505050565b505050565b60008135905061107481611aec565b92915050565b60008135905061108981611b03565b92915050565b6000602082840312156110a5576110a46117dd565b5b60006110b384828501611065565b91505092915050565b600080604083850312156110d3576110d26117dd565b5b60006110e185828601611065565b92505060206110f285828601611065565b9150509250929050565b600080600060608486031215611115576111146117dd565b5b600061112386828701611065565b935050602061113486828701611065565b92505060406111458682870161107a565b9150509250925092565b60008060408385031215611166576111656117dd565b5b600061117485828601611065565b92505060206111858582860161107a565b9150509250929050565b611198816116c5565b82525050565b6111a7816116d7565b82525050565b60006111b8826115ee565b6111c28185611604565b93506111d281856020860161171a565b6111db816117e2565b840191505092915050565b60006111f3602383611604565b91506111fe826117f3565b604082019050919050565b6000611216602683611604565b915061122182611842565b604082019050919050565b6000611239602283611604565b915061124482611891565b604082019050919050565b600061125c601d83611604565b9150611267826118e0565b602082019050919050565b600061127f602683611604565b915061128a82611909565b604082019050919050565b60006112a2600f83611604565b91506112ad82611958565b602082019050919050565b60006112c5602083611604565b91506112d082611981565b602082019050919050565b60006112e8602083611604565b91506112f3826119aa565b602082019050919050565b600061130b602583611604565b9150611316826119d3565b604082019050919050565b600061132e6000836115f9565b915061133982611a22565b600082019050919050565b6000611351602483611604565b915061135c82611a25565b604082019050919050565b6000611374602583611604565b915061137f82611a74565b604082019050919050565b6000611397601f83611604565b91506113a282611ac3565b602082019050919050565b6113b681611703565b82525050565b6113c58161170d565b82525050565b60006113d682611321565b9150819050919050565b60006020820190506113f5600083018461118f565b92915050565b6000602082019050611410600083018461119e565b92915050565b6000602082019050818103600083015261143081846111ad565b905092915050565b60006020820190508181036000830152611451816111e6565b9050919050565b6000602082019050818103600083015261147181611209565b9050919050565b600060208201905081810360008301526114918161122c565b9050919050565b600060208201905081810360008301526114b18161124f565b9050919050565b600060208201905081810360008301526114d181611272565b9050919050565b600060208201905081810360008301526114f181611295565b9050919050565b60006020820190508181036000830152611511816112b8565b9050919050565b60006020820190508181036000830152611531816112db565b9050919050565b60006020820190508181036000830152611551816112fe565b9050919050565b6000602082019050818103600083015261157181611344565b9050919050565b6000602082019050818103600083015261159181611367565b9050919050565b600060208201905081810360008301526115b18161138a565b9050919050565b60006020820190506115cd60008301846113ad565b92915050565b60006020820190506115e860008301846113bc565b92915050565b600081519050919050565b600081905092915050565b600082825260208201905092915050565b600061162082611703565b915061162b83611703565b9250827fffffffffffffffffffffffffffffffffffffffffffffffffffffffffffffffff038211156116605761165f61177f565b5b828201905092915050565b600061167682611703565b915061168183611703565b9250817fffffffffffffffffffffffffffffffffffffffffffffffffffffffffffffffff04831182151516156116ba576116b961177f565b5b828202905092915050565b60006116d0826116e3565b9050919050565b60008115159050919050565b600073ffffffffffffffffffffffffffffffffffffffff82169050919050565b6000819050919050565b600060ff82169050919050565b60005b8381101561173857808201518184015260208101905061171d565b83811115611747576000848401525b50505050565b6000600282049050600182168061176557607f821691505b60208210811415611779576117786117ae565b5b50919050565b7f4e487b7100000000000000000000000000000000000000000000000000000000600052601160045260246000fd5b7f4e487b7100000000000000000000000000000000000000000000000000000000600052602260045260246000fd5b600080fd5b6000601f19601f8301169050919050565b7f45524332303a207472616e7366657220746f20746865207a65726f206164647260008201527f6573730000000000000000000000000000000000000000000000000000000000602082015250565b7f4f776e61626c653a206e6577206f776e657220697320746865207a65726f206160008201527f6464726573730000000000000000000000000000000000000000000000000000602082015250565b7f45524332303a20617070726f766520746f20746865207a65726f20616464726560008201527f7373000000000000000000000000000000000000000000000000000000000000602082015250565b7f45524332303a20696e73756666696369656e7420616c6c6f77616e6365000000600082015250565b7f45524332303a207472616e7366657220616d6f756e742065786365656473206260008201527f616c616e63650000000000000000000000000000000000000000000000000000602082015250565b7f5769746864726177204661696c65640000000000000000000000000000000000600082015250565b7f4e6f7420456e6f7567682042616c616e636520546f2042757920546f6b656e73600082015250565b7f4f776e61626c653a2063616c6c6572206973206e6f7420746865206f776e6572600082015250565b7f45524332303a207472616e736665722066726f6d20746865207a65726f20616460008201527f6472657373000000000000000000000000000000000000000000000000000000602082015250565b50565b7f45524332303a20617070726f76652066726f6d20746865207a65726f2061646460008201527f7265737300000000000000000000000000000000000000000000000000000000602082015250565b7f45524332303a2064656372656173656420616c6c6f77616e63652062656c6f7760008201527f207a65726f000000000000000000000000000000000000000000000000000000602082015250565b7f45524332303a206d696e7420746f20746865207a65726f206164647265737300600082015250565b611af5816116c5565b8114611b0057600080fd5b50565b611b0c81611703565b8114611b1757600080fd5b5056fea2646970667358221220aadadadccfc3b0e47f774bc006063c447f91c11a5d6b0b35253c1f980175a56964736f6c63430008060033",
  "linkReferences": {},
  "deployedLinkReferences": {}
}